:200000000C9462000C948A000C948A000C948A000C948A000C948A000C948A000C948A00B8
:200020000C948A000C948A000C948A000C948A000C948A000C948A000C948A000C948A0070
:200040000C94D8000C948A000C949B020C94E9020C948A000C948A000C948A000C948A008E
:200060000C948A000C948A0000000000240027002A0000000000250028002B00000000003F
:20008000230026002900040404040404040402020202020203030303030301020408102071
:2000A0004080010204081020010204081020000000070002010000030406000000000000EB
:2000C0000000550411241FBECFEFD8E0DEBFCDBF11E0A0E0B1E0EAEBFAE002C005900D926F
:2000E000A633B107D9F711E0A6E3B1E001C01D92A93EB107E1F710E0C4ECD0E004C02297E0
:20010000FE010E945705C23CD107C9F70E94AB040C945B050C9400008091230161E00E9443
:20012000F30184E00E944702892BE1F487EC91E060E071E00E9420058091230161E00E949F
:20014000F30164E670E080E090E00E9420018091230160E00E94F30164E670E080E090E009
:200160000E94200108950F931F938091230161E00E94B40107EC11E0C80140E855E260E0B2
:2001800070E00E942403C8016DE071E00E94200584E060E00E94B40184E061E00E94F301E2
:2001A000C8016BE171E00E9420051F910F9108951F920F920FB60F9211242F933F938F9382
:2001C0009F93AF93BF9380913A0190913B01A0913C01B0913D0130913E010196A11DB11DA0
:2001E000232F2D5F2D3720F02D570196A11DB11D20933E0180933A0190933B01A0933C01F7
:20020000B0933D018091360190913701A0913801B09139010196A11DB11D80933601909347
:200220003701A0933801B0933901BF91AF919F918F913F912F910F900FBE0F901F901895C6
:200240009B01AC017FB7F8948091360190913701A0913801B091390166B5A89B05C06F3F3C
:2002600019F00196A11DB11D7FBFBA2FA92F982F8827860F911DA11DB11D62E0880F991F7D
:20028000AA1FBB1F6A95D1F7BC012DC0FFB7F8948091360190913701A0913801B091390182
:2002A000E6B5A89B05C0EF3F19F00196A11DB11DFFBFBA2FA92F982F88278E0F911DA11D43
:2002C000B11DE2E0880F991FAA1FBB1FEA95D1F7861B970B885E9340C8F22150304040403E
:2002E000504068517C4F211531054105510571F60895789484B5826084BD84B5816084BD1B
:2003000085B5826085BD85B5816085BDEEE6F0E0808181608083E1E8F0E01082808182608B
:200320008083808181608083E0E8F0E0808181608083E1EBF0E0808184608083E0EBF0E039
:20034000808181608083EAE7F0E0808184608083808182608083808181608083808180687B
:2003600080831092C1000895CF93DF93482F50E0CA0186569F4FFC0134914A575F4FFA015E
:200380008491882369F190E0880F991FFC01E859FF4FA591B491FC01EE58FF4FC591D49131
:2003A000662351F42FB7F8948C91932F909589238C93888189230BC0623061F42FB7F89455
:2003C0008C91932F909589238C938881832B88832FBF06C09FB7F8948C91832B8C939FBFAE
:2003E000DF91CF910895482F50E0CA0182559F4FFC012491CA0186569F4FFC0194914A574F
:200400005F4FFA013491332309F440C0222351F1233071F0243028F42130A1F0223011F536
:2004200014C02630B1F02730C1F02430D9F404C0809180008F7703C0809180008F7D8093FA
:20044000800010C084B58F7702C084B58F7D84BD09C08091B0008F7703C08091B0008F7DA5
:200460008093B000E32FF0E0EE0FFF1FEE58FF4FA591B4912FB7F894662321F48C9190955B
:20048000892302C08C91892B8C932FBF0895682F70E0CB0182559F4FFC012491CB018656A1
:2004A0009F4FFC0144916A577F4FFB019491992319F420E030E03CC0222351F1233071F0BC
:2004C000243028F42130A1F0223011F514C02630B1F02730C1F02430D9F404C08091800029
:2004E0008F7703C0809180008F7D8093800010C084B58F7702C084B58F7D84BD09C08091D2
:20050000B0008F7703C08091B0008F7D8093B000892F90E0880F991F84589F4FFC01A5915E
:20052000B4918C9120E030E0842311F021E030E0C901089508951F920F920FB60F9211249F
:200540002F933F934F938F939F93EF93FF938091C00082FD1DC04091C60020917F01309107
:2005600080012F5F3F4F2F73307080918101909182012817390771F0E0917F01F091800192
:20058000E15CFE4F40833093800120937F0102C08091C600FF91EF919F918F914F913F91EE
:2005A0002F910F900FBE0F901F901895E091D301F091D401E05CFF4F819191912081318168
:2005C000821B930B8F739070892B11F00E949A0208951F920F920FB60F9211242F933F93CD
:2005E0008F939F93EF93FF932091C3013091C4018091C5019091C6012817390731F4809124
:20060000C1008F7D8093C10014C0E091C501F091C601ED57FE4F20818091C5019091C601F5
:2006200001968F7390709093C6018093C5012093C600FF91EF919F918F913F912F910F9056
:200640000FBE0F901F901895AF92BF92DF92EF92FF920F931F93CF93DF93EC017A018B01A1
:20066000DD24403081EE580780E0680780E0780711F0DD24D39491E0A92EB12CEC89FD8904
:20068000DD2069F0C50108A002C0880F991F0A94E2F7808360E079E08DE390E005C010823B
:2006A00060E874E88EE190E0A80197010E943305215030404040504056954795379527955C
:2006C00080E12030380720F0DD2011F0DD24D6CFE889F9893083EA89FB89208319A2EE8904
:2006E000FF89408121E030E0C9010C8C02C0880F991F0A94E2F7482B4083EE89FF894081C0
:20070000C9010D8C02C0880F991F0A94E2F7482B4083EE89FF894081C9010E8C02C0880F3B
:20072000991F0A94E2F7482B4083EE89FF8980810F8C02C0220F331F0A94E2F720952823FD
:200740002083DF91CF911F910F91FF90EF90DF90BF90AF900895DC011C96ED91FC911D97E0
:20076000E05CFF4F2191319180819181281B390B2F733070C9010895DC011C96ED91FC919E
:200780001D97E05CFF4F20813181E054F040DF01AE5BBF4F8D919C9111972817390719F4EE
:2007A0002FEF3FEF07C08D919C91E80FF91F8081282F30E0C9010895DC011C96ED91FC9163
:2007C0001D97E05CFF4F20813181E054F040DF01AE5BBF4F8D919C9111972817390719F4AE
:2007E0002FEF3FEF10C08D919C911197E80FF91F20818D919C91119701968F739070119607
:200800009C938E9330E0C9010895DC0191968C919197882339F05496ED91FC915597808112
:2008200086FFF9CF91961C920895CF93DF93EC01EE85FF85E05CFF4F20813181E054F04000
:200840002F5F3F4F2F733070DF01AE5BBF4F8D919C91119728173907D1F3E05CFF4F808182
:200860009181E054F040E80FF91F6083EE85FF85E05CFF4F31832083EE89FF89208181E037
:2008800090E00F8C02C0880F991F0A94E2F7282B208381E089A3EC89FD898081806480835F
:2008A00081E090E0DF91CF9108951092CA011092C90188EE93E0A0E0B0E08093CB01909326
:2008C000CC01A093CD01B093CE0189E291E09093C8018093C7018FE391E09093D4018093A7
:2008E000D30183E891E09093D6018093D50185EC90E09093D8018093D70184EC90E090939A
:20090000DA018093D90180EC90E09093DC018093DB0181EC90E09093DE018093DD0182EC06
:2009200090E09093E0018093DF0186EC90E09093E2018093E10184E08093E30183E08093A2
:20094000E40187E08093E50185E08093E60181E08093E7010895CF93DF930E9479010E9468
:20096000B300C6EDD2E00E948C002097E1F30E94D602F9CFCF92DF92EF92FF920F931F932C
:20098000CF93DF937C016B018A01C0E0D0E00FC0D6016D916D01D701ED91FC910190F081C8
:2009A000E02DC7010995C80FD91F015010400115110571F7CE01DF91CF911F910F91FF9042
:2009C000EF90DF90CF900895EF92FF920F931F938C01DC01ED91FC910190F081E02D6DE0F6
:2009E00009957C01D801ED91FC910190F081E02DC8016AE009959C012E0D3F1DC9011F918A
:200A00000F91FF90EF900895CF93DF93EC016115710519F420E030E00FC0DB010D90002059
:200A2000E9F71197A61BB70BE881F9810280F381E02DAD0109959C01C901DF91CF910895A5
:200A4000EF92FF920F931F937C010E9404058C01C7010E94E404080F191FC8011F910F91C1
:200A6000FF90EF900895A1E21A2EAA1BBB1BFD010DC0AA1FBB1FEE1FFF1FA217B307E4076E
:200A8000F50720F0A21BB30BE40BF50B661F771F881F991F1A9469F7609570958095909524
:200AA0009B01AC01BD01CF010895EE0FFF1F0590F491E02D0994F894FFCF427574746F6E0D
:200AC00020646F776E210073746172742074657374696E670074657374696E6700090000CA
:200AE0000000001504BA04AB03DC03BC03050400FFFFFFFFFFFFFFFFFFFFFFFFFFFFFFFFDA
:200B000053C085E090E00E940204F8CF0E948101F5CF0E94F502082F10E010931F01009380
:200B20001E010E94F502382F20E0200F311F30931F0120931E01E2CF0E94F5020E94F5027F
:200B4000DDCF0E94E20430C00E9469032DC00E9499042AC010921B0110921A010E946C01C3
:200B6000CDCF0E94000320C080911A0190911B01019690931B0180931A0111C080911A01EA
:200B800090911B01019690931B0180931A010E94F502803221F483EC92E062E103C083EC5E
:200BA00092E065E10E945C0A1F910F91089590910801913C28F0809109018195809309012B
:200BC000903228F48091090181958093090160910901690F6093080189E070E00E941F07F9
:200BE00064E170E080E090E00E948B06089580911C0190911D01892B19F087E061E002C02C
:200C000087E060E00E94BE0780911A0190911B01892B19F088E061E002C088E060E00E94EB
:200C2000BE070E94D70583EC92E00E942309892B11F00E942105089583EC92E040E05BE468
:200C400060E070E00E949C0887E061E00E947F0787E090E062E070E00E94D30288E061E065
:200C60000E947F0788E090E062E070E00E94D30289E061E00E947F0789E090E062E070E02E
:200C80000E94D30208951F920F920FB60F9211242F933F938F939F93AF93BF93809136028E
:200CA00090913702A0913802B091390230913A020196A11DB11D232F2D5F2D3720F02D57FD
:200CC0000196A11DB11D20933A028093360290933702A0933802B09339028091320290910A
:200CE0003302A0913402B09135020196A11DB11D8093320290933302A0933402B09335023B
:200D0000BF91AF919F918F913F912F910F900FBE0F901F9018959B01AC017FB7F8948091E0
:200D2000320290913302A0913402B091350266B5A89B05C06F3F19F00196A11DB11D7FBF0F
:200D4000BA2FA92F982F8827860F911DA11DB11D62E0880F991FAA1FBB1F6A95D1F7BC01D5
:200D60002DC0FFB7F8948091320290913302A0913402B0913502E6B5A89B05C0EF3F19F0F0
:200D80000196A11DB11DFFBFBA2FA92F982F88278E0F911DA11DB11DE2E0880F991FAA1F8A
:200DA000BB1FEA95D1F7861B970B885E9340C8F2215030404040504068517C4F211531057B
:200DC0004105510571F60895789484B5826084BD84B5816084BD85B5826085BD85B5816037
:200DE00085BDEEE6F0E0808181608083E1E8F0E01082808182608083808181608083E0E86A
:200E0000F0E0808181608083E1EBF0E0808184608083E0EBF0E0808181608083EAE7F0E078
:200E20008081846080838081826080838081816080838081806880831092C10008951F9361
:200E4000CF93DF93182FEB0161E00E947F07209709F44AC0CF3FD10509F449C0E12FF0E09A
:200E6000E255FF4F84918330C1F0843028F4813051F08230B1F50CC0863019F1873049F1DD
:200E8000843079F514C084B5806884BDC7BD33C084B5806284BDC8BD2EC08091800080683B
:200EA00080938000D0938900C093880024C080918000806280938000D0938B00C0938A0023
:200EC0001AC08091B00080688093B000C093B30012C08091B00080628093B000C093B40087
:200EE0000AC0C038D1051CF4812F60E002C0812F61E00E94BE07DF91CF911F910895CF93C1
:200F0000DF93482F50E0CA0186569F4FFC0134914A575F4FFA018491882369F190E0880FF6
:200F2000991FFC01E859FF4FA591B491FC01EE58FF4FC591D491662351F42FB7F8948C9149
:200F4000932F909589238C93888189230BC0623061F42FB7F8948C91932F909589238C9337
:200F60008881832B88832FBF06C09FB7F8948C91832B8C939FBFDF91CF910895482F50E0BD
:200F8000CA0182559F4FFC012491CA0186569F4FFC0194914A575F4FFA013491332309F4F6
:200FA00040C0222351F1233071F0243028F42130A1F0223011F514C02630B1F02730C1F079
:200FC0002430D9F404C0809180008F7703C0809180008F7D8093800010C084B58F7702C0D1
:200FE00084B58F7D84BD09C08091B0008F7703C08091B0008F7D8093B000E32FF0E0EE0FA9
:20100000FF1FEE58FF4FA591B4912FB7F894662321F48C919095892302C08C91892B8C93F3
:201020002FBF089508951F920F920FB60F9211242F933F934F938F939F93EF93FF938091AC
:20104000C00082FD1DC04091C60020917B0230917C022F5F3F4F2F73307080917D02909161
:201060007E022817390771F0E0917B02F0917C02E55CFD4F408330937C0220937B0202C0A0
:201080008091C600FF91EF919F918F914F913F912F910F900FBE0F901F901895E091CF0200
:2010A000F091D002E05CFF4F8191919120813181821B930B8F739070892B11F00E9412081E
:2010C00008951F920F920FB60F9211242F933F938F939F93EF93FF932091BF023091C00295
:2010E0008091C1029091C2022817390731F48091C1008F7D8093C10014C0E091C102F09158
:20110000C202E158FD4F20818091C1029091C20201968F7390709093C2028093C102209323
:20112000C600FF91EF919F918F913F912F910F900FBE0F901F901895AF92BF92DF92EF920E
:20114000FF920F931F93CF93DF93EC017A018B01DD24403081EE580780E0680780E07807F5
:2011600011F0DD24D39491E0A92EB12CEC89FD89DD2069F0C50108A002C0880F991F0A9473
:20118000E2F7808360E079E08DE390E005C0108260E874E88EE190E0A80197010E94830AB0
:2011A0002150304040405040569547953795279580E12030380720F0DD2011F0DD24D6CF4B
:2011C000E889F9893083EA89FB89208319A2EE89FF89408121E030E0C9010C8C02C0880F88
:2011E000991F0A94E2F7482B4083EE89FF894081C9010D8C02C0880F991F0A94E2F7482B6C
:201200004083EE89FF894081C9010E8C02C0880F991F0A94E2F7482B4083EE89FF89808129
:201220000F8C02C0220F331F0A94E2F7209528232083DF91CF911F910F91FF90EF90DF9017
:20124000BF90AF900895DC011C96ED91FC911D97E05CFF4F2191319180819181281B390B7D
:201260002F733070C9010895DC011C96ED91FC911D97E05CFF4F20813181E054F040DF0156
:20128000AE5BBF4F8D919C9111972817390719F42FEF3FEF07C08D919C91E80FF91F80814A
:2012A000282F30E0C9010895DC011C96ED91FC911D97E05CFF4F20813181E054F040DF01F1
:2012C000AE5BBF4F8D919C9111972817390719F42FEF3FEF10C08D919C911197E80FF91F5A
:2012E00020818D919C91119701968F73907011969C938E9330E0C9010895DC0191968C9132
:201300009197882339F05496ED91FC915597808186FFF9CF91961C920895CF93DF93EC016F
:20132000EE85FF85E05CFF4F20813181E054F0402F5F3F4F2F733070DF01AE5BBF4F8D9102
:201340009C91119728173907D1F3E05CFF4F80819181E054F040E80FF91F6083EE85FF858B
:20136000E05CFF4F31832083EE89FF89208181E090E00F8C02C0880F991F0A94E2F7282BA5
:20138000208381E089A3EC89FD8980818064808381E090E0DF91CF9108951092C6021092F0
:2013A000C50288EE93E0A0E0B0E08093C7029093C802A093C902B093CA028EE091E0909395
:2013C000C4028093C3028BE392E09093D0028093CF028FE792E09093D2028093D10285EC80
:2013E00090E09093D4028093D30284EC90E09093D6028093D50280EC90E09093D8028093EB
:20140000D70281EC90E09093DA028093D90282EC90E09093DC028093DB0286EC90E0909355
:20142000DE028093DD0284E08093DF0283E08093E00287E08093E10285E08093E20281E010
:201440008093E3020895CF93DF930E94E4060E941C06CEE4D8E00E94F7052097E1F30E949E
:201460004E08F9CFCF92DF92EF92FF920F931F93CF93DF937C016B018A01C0E0D0E00FC0AF
:20148000D6016D916D01D701ED91FC910190F081E02DC7010995C80FD91F0150104001152B
:2014A000110571F7CE01DF91CF911F910F91FF90EF90DF90CF900895DC01ED91FC910190CD
:2014C000F081E02D09950895CF93DF93EC016115710519F420E030E00FC0DB010D90002021
:2014E000E9F71197A61BB70BE881F9810280F381E02DAD0109959C01C901DF91CF910895DB
:201500000E94640A0895A1E21A2EAA1BBB1BFD010DC0AA1FBB1FEE1FFF1FA217B307E407C1
:20152000F50720F0A21BB30BE40BF50B661F771F881F991F1A9469F7609570958095909579
:201540009B01AC01BD01CF010895EE0FFF1F0590F491E02D0994F894FFCF41565220495339
:2015600050008008000000008D09320A2309540934097D09FFFFFFFFFFFFFFFFFFFFFFFF81
:20158000F901948F838F8C2D992DB901A7010E942B078C2D992DCA58DF4F0FB6F894DEBFAA
:2015A0000FBECDBFCF91DF911F910F91FF90EF90DF90CF90BF90AF909F9008950F931F9328
:2015C000CF93DF93EC01462F61E00E944A0D8823D1F08E01045F1F4FC801BE0141E00E9484
:2015E000A116882339F4C801BE0140E00E94A116882349F0CE018A96B8010E94C0118823B1
:2016000019F081E001C080E0DF91CF911F910F910895442311F481E008950E94DA150895EA
:20162000FC01673020F086E1858380E00895262F30E060FD02C0663019F48DB58E7F02C062
:201640008DB581608DBD8CB58C7F8CBD4CB522FD02C090E001C092E036952795822F8170DA
:20166000842B892B8CBD81E00895FF920F931F93CF93DF938B010E94491CEB01FF24FA94D7
:20168000FEBC0DB407FEFDCF8EB58F3F11F481E008C00E94491C6C1B7D0B6017710780F347
:2016A00080E0DF91CF911F910F91FF900895FC01848160E00E942A1D0895FC01848161E073
:2016C0000E942A1D0895DC016EBDFA0120E030E00DB407FEFDCF80818EBD0DB407FEFDCF01
:2016E00081818EBD2E5F3F4F329682E02030380779F70DB407FEFDCF8FEF8EBD0DB407FE38
:20170000FDCF8FEF8EBD0DB407FEFDCF8FEF8EBD0DB407FEFDCF8EB51A968C931A978F7184
:20172000853011F481E0089581E115968C931597CD010E945D0B80E00895FF920F931F935F
:20174000CF93DF93EC010E94491C8B01FF24FA9409C00E94491C601B710B6D52714010F04D
:201760008FE00DC0FEBC0DB407FEFDCF8EB58A878F3F79F38E3F11F481E006C08DE08D83DD
:20178000CE010E945D0B80E0DF91CF911F910F91FF900895CF93DF93EC018E818823D1F088
:2017A0008FEF8EBD2F8138854FEF04C00DB407FEFDCF4EBD2F5F3F4FC90101978150924033
:2017C000A8F338872F830DB407FEFDCFCE010E945D0B1E82DF91CF910895DF92EF92FF9202
:2017E0000F931F93CF93DF93EC01D62E79018A010E94CA0BCE010E94570BCE016CE271E013
:201800000E94350B8D2D80648EBD0DB407FEFDCF28E130E0D801C701022E04C0B695A79536
:20182000979587950A94D2F78EBD0DB407FEFDCF285030408FEF283F380761F7DD2011F4B6
:2018400085E906C088E0D81611F487E801C08FEF8EBD0DB407FEFDCF90E02FEF2EBD0DB434
:2018600007FEFDCF8EB587FF02C09150B9F78A87DF91CF911F910F91FF90EF90DF90089530
:20188000CF92DF92EF92FF920F931F93CF93DF93EC017A018B016901411551056105710556
:2018A00011F482E137C08B85833039F029E0EE0CFF1C001F111F2A95D1F7CE0168E1A80128
:2018C00097010E94ED0B882311F084E023C0CE016EEFA6010E94630B8823E9F0CE0168E560
:2018E00072E00E94350B882311F485E113C0CE016DE020E030E040E050E00E94ED0B88230A
:2019000041F48FEF8EBD0DB407FEFDCF8EB5882379F084E18D83CE010E945D0B80E0DF91C2
:20192000CF911F910F91FF90EF90DF90CF900895CE010E945D0B81E0F2CF8F929F92AF92F0
:20194000BF92CF92DF92EF92FF920F931F93CF93DF93EC015A016B0149010115110509F403
:201960007BC0C801820F931F8150924008F06FC08E81882371F088819981AA81BB81481752
:2019800059076A077B0729F48F8198858816990618F5A882B982CA82DB828B85833039F066
:2019A00069E0AA0CBB1CCC1CDD1C6A95D1F7CE0161E1A60195010E94ED0B882319F083E0AA
:2019C0008D8345C0CE010E949D0B882309F43FC018861F8281E08E838FEF8EBD8F8198858B
:2019E0002FEF05C00DB407FEFDCF2EBD019688159905C0F398878F83D801119720E030E040
:201A00009FEF0BC00DB407FEFDCF8EB5F701E20FF31F80839EBD2F5F3F4F2A173B0790F31D
:201A20000DB407FEFDCF8EB5AE0DBF1D8C932F813885200F311F38872F838985882319F0FC
:201A40002050324048F0CE010E94CA0B05C0CE010E945D0B80E001C081E0DF91CF911F9186
:201A60000F91FF90EF90DF90CF90BF90AF909F908F900895EF92FF920F931F93790120E091
:201A800030E000E012E00E949D0C1F910F91FF90EF900895BF92CF92DF92EF92FF920F9347
:201AA0001F93CF93DF93EC01B62E1B8619861E821D824C830E94491C6B018C8161E00E941E
:201AC000EB1CCE010E945D0B8CE060E00E94EB1C8BE061E00E94EB1C8DE061E00E94EB1C25
:201AE0008AE061E00E94EB1C8AE061E00E942A1D83E58CBD8DB58E7F8DBD80E09FEF9EBD6B
:201B00000DB407FEFDCF8F5F8A30C9F7CE010E94570B09C00E94491C6C197D09615D7740A8
:201B200010F081E05EC0CE0160E020E030E040E050E00E94ED0B182F8A87813059F7CE01F5
:201B400068E02AEA31E040E050E00E94ED0B82FF02C01B8711C080E02FEF2EBD0DB407FE49
:201B6000FDCF9EB58F5F8430C1F79A879A3A11F082E037C082E08B878B85823021F0EE2444
:201B8000FF2487010FC0E12CF12C012DF0E41F2F09C00E94491C6C197D09615D774010F001
:201BA00088E01FC0CE0167E320E030E040E050E00E94ED0BCE0169E2A80197010E94ED0BD6
:201BC0008A87882331F78B85823031F5CE016AE320E030E040E050E00E94ED0B882339F04F
:201BE00086E08D83CE010E945D0B80E01CC08FEF8EBD0DB407FEFDCF8EB5807C803C11F4FF
:201C000083E08B8780E09FEF9EBD0DB407FEFDCF2EB58F5F8330C1F7CE010E945D0BCE0190
:201C20006B2D0E94100BDF91CF911F910F91FF90EF90DF90CF90BF900895CF93DF93EC01A6
:201C4000DB0180E090E020E2FD01E80FF91F208301968B309105C1F757E040E021C02E32EE
:201C600019F084E091E007C05A3019F15AE048E017C03217F1F0FC01019634913323C9F759
:201C80005417B8F02132A8F02F3798F4822F81568A3108F42052FD01E40FF11D20834F5F53
:201CA00029912223E1F690E08C91803219F091E001C090E0892FDF91CF9108956F927F922D
:201CC0008F929F92AF92BF92CF92DF92EF92FF920F931F93CF93DF93EC017A018B012D8172
:201CE000222309F480C08B899C89AD89BE8984179507A607B70708F476C085C0E114F104A9
:201D00000105110549F41E821F82188619861A861B861C861D8665C02A853B854C855D851F
:201D2000EB8DFC8D858590E00996215030404040504039014A01082E04C0969487947794C9
:201D400067940A94D2F72F5F3F4F4F4F5F4F0894E108F108010911095701680104C0D69428
:201D6000C794B794A7948A95D2F70894E11CF11C011D111DA614B704C804D90428F021153C
:201D800031054105510549F48F89988DA98DBA8D8E839F83A887B98716C0A618B708C808B5
:201DA000D90811C04E815F81688579858B8D9C8D94010E9482180894A108B108C108D10825
:201DC000882331F410C086E0882E912C8C0E9D1EA114B104C104D10429F7EA86FB860C878D
:201DE0001D8781E001C080E0DF91CF911F910F91FF90EF90DF90CF90BF90AF909F908F90E5
:201E00007F906F900895223009F078CFE6CFCF93DF93EC01462F6E857F85888999890E94CE
:201E20006616882319F420E030E00AC08A89282F30E095E0220F331F9A95E1F72A513C4F15
:201E4000C901DF91CF9108950F931F93CF93DF938C01FC0185818823D9F1848187FF35C09E
:201E6000C80161E00E94070FEC01009789F1F8018581823040F483899489A589B6898C8F0C
:201E80009D8FAE8FBF8FF8018789908D9B8F8A8F8789908DA18DB28DCD01AA27BB279D8BDF
:201EA0008C8BE091E403F091E503309751F0BE016A5E7F4FCE0148960995888D998D9B8B41
:201EC0008A8BF80184818F7784830E94071601C080E0DF91CF911F910F910895CF93DF9371
:201EE000EC010E94240F882311F01D8281E0DF91CF9108956F927F928F929F92AF92BF9211
:201F0000CF92DF92EF92FF920F931F93DF93CF9300D000D0CDB7DEB77C015A016B01DC01DB
:201F200015968C911597813009F08FC014968C9181FF8BC09EC00097A105B10511F481E0EB
:201F400085C0F7016284738484849584C701B601A5010E945E0E882309F477C0D7015B966B
:201F60008D919C915C97A114B104C104D10489F457964D915D916D917C915A970E94F5183E
:201F8000882309F462C0F701178A108E118E128E3DC0D70116964D915D916D917C911997F9
:201FA0009E012F5F3F4F0E948218882309F44DC0D7015B96ED91FC915C9749815A816B811D
:201FC0007C818789803129F088EF9FEFAFEFBFE004C088EF9FEFA0E0B0E0481759076A07DF
:201FE0007B07A0F4CF010E94F518882371F1F7014681578160857185838D948D0FEF1FEF90
:202000002FEF3FE00E94E6178823F9F0D7015396AD92BD92CD92DC92569714968C911497D5
:20202000806814968C93C7010E94240F882369F0B601A5016A147B048C049D0410F4B4010A
:20204000A301C7010E945E0E01C080E00F900F900F900F90CF91DF911F910F91FF90EF903B
:20206000DF90CF90BF90AF909F908F907F906F900895F70183899489A589B6898417950746
:20208000A607B70708F057CFE0CFCF93DF93EC0140E050E060E070E00E947A0F882369F038
:2020A000CE0161E00E94070FFC01009731F085EE80831D820E94071601C080E0DF91CF91DE
:2020C00008952F923F924F925F926F927F928F929F92AF92BF92CF92DF92EF92FF920F9383
:2020E0001F93CF93DF93EC012A018D81882309F4C6C08C8180FFC3C0D8C025014E185F086C
:202100004B0176E0272E312C2C0E3D1E3201B1C02A853B854C855D856FEFA62E61E0B62EB9
:20212000A222B3228D8179018A0199E016950795F794E7949A95D1F7EB8DFC8D823049F446
:20214000428D538D648D758D4E0D5F1D601F711F3FC0D480DA94DE20A114B104D9F4DD2004
:20216000C9F4211531054105510549F48F89988DA98DBA8D8E839F83A887B9870BC04E8167
:202180005F8168857985CF0191010E948218882309F475C0EB8DFC8D4E815F81688579855E
:2021A0004250504060407040058404C0440F551F661F771F0A94D2F786859785A089B1898D
:2021C000480F591F6A1F7B1F4D0D511D611D711D80E092E08A199B0963018615970508F489
:2021E0006C018C8186FD06C080E0C81682E0D80609F073C08091DC019091DD01A091DE0175
:20220000B091DF01481759076A077B0709F465C08091E6059091E7059501860174010E948C
:202220009D0C882361F18C0C9D1C12C095012A513C4FA9014C0D5D1DD401F90102C0819119
:202240008D93E417F507D9F7E21BF30B8E0E9F1E960140E050E08A859B85AC85BD85820F29
:20226000931FA41FB51F8A879B87AC87BD876C187D086114710409F04BCFA20102C04FEFC2
:202280005FEFCA01DF91CF911F910F91FF90EF90DF90CF90BF90AF909F908F907F906F903F
:2022A0005F904F903F902F900895AB88BC88CD88DE88EA84FB840C851D859A0140E050E0E8
:2022C000D601C5018E199F09A00BB10B82179307A407B50708F411CF13CFCB01BA0140E0AC
:2022E0000E946616882309F0A1CFC9CFCF92DF92EF92FF920F931F93DF93CF930F92CDB7E3
:20230000DEB76C01FC018581823070F0E284F38404851585C601BE016F5F7F4F41E050E033
:202320000E946110019769F020E030E0C9010F90CF91DF911F910F91FF90EF90DF90CF9024
:202340000895F60182859385A485B5854F96A11DB11D82879387A487B587F5E01695079550
:20236000F794E794FA95D1F78E2D8F70282F30E0E5E0220F331FEA95E1F72A513C4FD6CF95
:202380000F931F93CF93DF93EC018B018D81882309F041C0FB0187898031B1F482E08D8315
:2023A0001F8A188E198E1A8E808D918DA0E0B0E045E0880F991FAA1FBB1F4A95D1F78B8B70
:2023C0009C8BAD8BBE8B15C0803229F583E08D83FB01428D538D648D758D4F8B588F698FE6
:2023E0007A8F9E012D5E3F4FC8010E944E19882391F01C8F0B8F81E08C831E821F8218868A
:2024000019861A861B861C861D861E861F86188A198A1A8A01C080E0DF91CF911F910F9124
:2024200008951F93CF93DF93EC01142FE62FF0E075E0EE0FFF1F7A95E1F7EA51FC4F83857F
:20244000817121F0842F827409F054C06A8B8091DC019091DD01A091DE01B091DF018E879B
:202460009F87A88BB98B84899589A0E0B0E0BC0155274427828D938DA0E0B0E0482B592BAA
:202480006A2B7B2B4F8B588F698F7A8F838590E088719070009751F4848D958DA68DB78D48
:2024A0008B8B9C8BAD8BBE8B81E00CC0409711F59E012D5E3F4F8B8D9C8D0E944E198823A7
:2024C000C9F084E08D83812F8F708C831E821F82188619861A861B861C861D8616FD02C038
:2024E00081E009C0CE0140E050E060E070E00E947A0F01C080E0DF91CF911F910895CF9338
:20250000DF93EC019C012A5F3F4F8B8D9C8D41E050E060E070E00E94BD198823A1F08F89BA
:20252000988DA98DBA8D0097A105B10559F48E819F81A885B9858F8B988FA98FBA8F8C8150
:2025400080688C8381E0DF91CF9108952F923F924F925F927F928F929F92AF92BF92CF92FC
:20256000DF92EF92FF920F931F93DF93CF9300D000D000D0CDB7DEB76C01162F072F5E835E
:202580004D83DC0115968C911597813009F070C114968C9181FF6CC18EC1F60143895489DC
:2025A0006589768982859385A485B58584179507A607B70731F0C6010E945E0E882309F46C
:2025C00057C1812F902F9C0129012D803E8017C1D6015B96ED91FC915C97DA01C90119E006
:2025E000B695A795979587951A95D1F774807A9478227FEF872E71E0972E822293227720D0
:2026000009F04EC08114910409F04AC0D60116964D915D916D917C9119974115510561056A
:20262000710581F457968D919D910D90BC91A02D0097A105B10549F1F60186839783A08751
:20264000B1872EC0CF019E012F5F3F4F0E948218882309F414C129813A814B815C81D6012B
:202660005B96ED91FC915C978789803129F088EF9FEFAFEFBFE004C088EF9FEFA0E0B0E076
:20268000281739074A075B0730F0C6010E947F12882331F4EDC0F601268337834087518778
:2026A00080E092E08819990951018215930508F45C01D6015B96ED91FC915C971696ED903C
:2026C000FD900D911C9119978EEF9FEFAFEFBFEFE80EF91E0A1F1B1F058404C0EE0CFF1C49
:2026E000001F111F0A94D2F786859785A089B189E80EF91E0A1F1B1FE70CF11C011D111DDE
:2027000090E0A91692E0B90651F58091DC019091DD01A091DE01B091DF018E159F05A00707
:20272000B10761F48FEF9FEFAFEFBFEF8093DC019093DD01A093DE01B093DF018091E60512
:202740009091E705B801A70192010E94400C882309F48EC0A0E0B2E04A0E5B1E3EC081141E
:20276000910409F5F601228533854485558583899489A589B689281739074A075B0798F07D
:202780000E940716882309F473C0E092DC01F092DD010093DE011093DF018091E80581601C
:2027A0008093E80508C0C801B70141E00E946616882309F45DC094012A513C4FA9014A0D30
:2027C0005B1DD201F90102C08D918193E417F507D9F7E21BF30B4E0E5F1E2A183B0895010A
:2027E00040E050E0F60182859385A485B585820F931FA41FB51F82879387A487B587D601D5
:202800001A962D913D914D915C911D972114310409F0DECE53968D919D910D90BC91A02D02
:2028200082179307A407B50748F4F601238B348B458B568B84818068848311C08091E403F0
:202840009091E503892B59F08D819E81892B39F0D60114968C911497806814968C93F60177
:20286000848183FF0EC0C6010E94240F882349F481E090E0D60113969C938E9312971E8295
:202880001D828D819E8126960FB6F894DEBF0FBECDBFCF91DF911F910F91FF90EF90DF90CC
:2028A000CF90BF90AF909F908F907F905F904F903F902F90089582FD70CE83CEDF93CF93F3
:2028C0000F92CDB7DEB76983BE016F5F7F4F41E050E00E94A6120F90CF91DF910895DF92CF
:2028E000EF92FF920F931F93CF93DF93EC010E947F12882309F44EC0EB8DFC8DEE80FF80DA
:20290000088519858EEF9FEFAFEFBFEFE80EF91E0A1F1B1F058404C0EE0CFF1C001F111F14
:202920000A94D2F786859785A089B189E80EF91E0A1F1B1FD4800894E108F1080109110940
:202940000BC0C801B7016D0D711D811D911D0E9442168823F9F0DA94DD2099F7EB8DFC8D4D
:2029600020E032E040E050E0058404C0220F331F441F551F0A94D2F78B899C89AD89BE8931
:20298000820F931FA41FB51F8B8B9C8BAD8BBE8B81E001C080E0DF91CF911F910F91FF906E
:2029A000EF90DF9008956F927F928F929F92AF92BF92CF92DF92EF92FF920F931F93DF93EC
:2029C000CF93CDB7DEB72B970FB6F894DEBF0FBECDBF5C016B01822EDC0115968C918823AA
:2029E00009F0D2C0CA018E010F5F1F4FB8010E941D0E882309F4C8C0F601838D948DD50162
:202A00005C969C938E935B971682178210861186D6011A961D921D921D921C921D97992471
:202A2000380141C0C6010E947611FC01009709F4ABC085E016950795F794E7948A95D1F7D7
:202A40001E2D1F708081882311F0853ED1F4992091F4D50152961C9352972091DC01309184
:202A6000DD014091DE015091DF011E962D933D934D935C9351978081882399F499249394EF
:202A800021C0C301BF014BE050E00E94E500009751F4882D8073803309F476C0C501612F2F
:202AA0006FC099249394F601E284F3840485158583899489A589B689E816F9060A071B0746
:202AC00008F4B0CF882D8271823109F05DC0992041F0C50161E00E94070F8C01009789F4C0
:202AE00053C0D60115968C91823009F44DC0C6010E946F14882309F447C0F501128A06EE47
:202B000013E080E2D8011D928A95E9F7D801FE0131968BE001900D928150E1F7E091E4039E
:202B2000F091E503309739F0B801625F7F4FC8014096099509C081E298E2F801918B808BF1
:202B400080E098E097878687D80150968D919C91519753969C938E93529759969C938E931F
:202B600058971E968D919C911F9757969C938E9356970E940716882339F0C501F50162894D
:202B8000482D0E94111201C080E02B960FB6F894DEBF0FBECDBFCF91DF911F910F91FF9023
:202BA000EF90DF90CF90BF90AF909F908F907F906F9008950F931F93DF93CF93CDB7DEB700
:202BC0006D970FB6F894DEBF0FBECDBF9C01AB011C821B828AE092E09A8389831E828E01F2
:202BE0000F5F1F4FC801B90122E00E94D314882319F0C8010E9445106D960FB6F894DEBF86
:202C00000FBECDBFCF91DF911F910F9108958091E805882399F14091DC015091DD0160910D
:202C2000DE017091DF018091E6059091E70526EE33E00E94400C882319F14091E905509161
:202C4000EA056091EB057091EC05411551056105710591F08091E6059091E70526EE33E079
:202C60000E94400C882361F01092E9051092EA051092EB051092EC051092E80581E0089597
:202C800080E00895EF92FF920F931F937B018C010E9407168823A9F0E6EEF3E0119285E016
:202CA000E63EF807D9F7E092DC01F092DD010093DE011093DF018091E80581608093E8059E
:202CC00081E01F910F91FF90EF900895DF92EF92FF920F931F937B018C01D42E8091DC01C8
:202CE0009091DD01A091DE01B091DF018E159F05A007B107C1F00E9407168823D9F0809109
:202D0000E6059091E705B801A70126EE33E00E943A0D882379F0E092DC01F092DD010093F4
:202D2000DE011093DF018091E8058D298093E80581E001C080E01F910F91FF90EF90DF902E
:202D400008958F929F92AF92BF92CF92DF92EF92FF920F931F93CF93DF936C01142F709333
:202D6000E7056093E605442321F488249924540140C0453008F01CC160E070E080E090E0A5
:202D800040E00E946616882309F412C1C12FD0E02197FE0174E0EE0FFF1F7A95E1F7EA5192
:202DA000FC4FE254FE4F8081EE5BF14090E08F779070892B09F0FCC0E653FE4F8081918152
:202DC000A281B38184369105A105B10508F4F0C064E0CC0FDD1F6A95E1F7C455DA4F888008
:202DE0009980AA80BB8081149104A104B10409F4DFC0C501B40140E00E946616882309F4D4
:202E0000D7C08091F1039091F2038050924009F0CFC02091F603222309F4CAC08091F40358
:202E20009091F503892B09F4C3C08091F303882309F4BEC0F601228B8091F30384831586CB
:202E400061E070E007C04F5FF60145874150483008F0AEC0F6014585848190E09B01042E36
:202E600002C0220F331F0A94E2F78217930759F72091FC033091FD032115310519F040E00D
:202E800050E008C020910A0430910B0440910C0450910D04F6012583368347835087E0906F
:202EA000F403F090F50300E010E0E80CF91C0A1D1B1DE38AF48A058B168B8091F703909123
:202EC000F803918F808F6091F60370E080E090E00E941C206E0D7F1D801F911FF601628F92
:202EE000738F848F958F2091F7033091F80355E0220F331F5A95E1F721503E4F232F332709
:202F0000269540E050E0260F371F481F591F26873787408B518B8091F9039091FA03009768
:202F200019F0A0E0B0E008C08091060490910704A0910804B091090485017401E21AF30AEA
:202F4000040B150BA8019701280F391F4A1F5B1FF601058404C056954795379527950A945E
:202F6000D2F72187328743875487253FFFE03F07F0E04F07F0E05F0710F48CE006C0255FE3
:202F80003F4F4040504028F480E1F601878B81E010C08091120490911304A0911404B091F3
:202FA0001504F601828F938FA48FB58F80E2EECF80E0DF91CF911F910F91FF90EF90DF903B
:202FC000CF90BF90AF909F908F9008954F925F926F927F928F929F92AF92BF92CF92DF927F
:202FE000EF92FF920F931F93CF93DF93EC016A017B0128013901423051056105710508F4C0
:203000006FC089859A85AB85BC850196A11DB11D84179507A607B70708F462C02B893C8987
:203020004D895E898F89803129F499278F2D7E2D6D2D09C0C701B60117E09695879577959A
:2030400067951A95D1F74B015C01820E931EA41EB51E8091DC019091DD01A091DE01B09140
:20306000DF0188169906AA06BB0639F0C501B40140E00E946616882399F18F89803149F4A5
:20308000F601F070EE0FFF1FEA51FC4F518240820DC0F601EF77F070EE0FFF1FEE0FFF1FE3
:2030A000EA51FC4F40825182628273828091E80581608093E8058A89823080F08D819E81DB
:2030C000AF81B885880E991EAA1EBB1E8092E9059092EA05A092EB05B092EC0581E001C00D
:2030E00080E0DF91CF911F910F91FF90EF90DF90CF90BF90AF909F908F907F906F905F909B
:203100004F900895CF92DF92EF92FF920F931F93CF93DF93EC017A018B01690189859A859C
:20312000AB85BC850196A11DB11D84179507A607B70708F450C02B893C894D895E898F89FF
:20314000803129F49927812F702F6F2D09C0C801B701E7E09695879577956795EA95D1F74F
:20316000260F371F481F591F8091DC019091DD01A091DE01B091DF01281739074A075B0795
:2031800039F0CA01B90140E00E946616882319F18F89803159F4F701F070EE0FFF1FEA51CA
:2031A000FC4F80819181A0E0B0E00EC0F701EF77F070EE0FFF1FEE0FFF1FEA51FC4F808158
:2031C0009181A281B381BF70F60180839183A283B38381E001C080E0DF91CF911F910F914C
:2031E000FF90EF90DF90CF900895AF92BF92CF92DF92EF92FF920F931F93DF93CF9300D0E8
:2032000000D0CDB7DEB76C017A018B0182E090E0A0E0B0E0F60180839183A283B3835E01A7
:203220000894A11CB11CC601B801A70195010E948218882319F1C601B801A70100E010E0C1
:2032400020E030E00E94E6178823C1F0E980FA800B811C81F6018789803129F088EF9FEF81
:20326000AFEFBFE004C088EF9FEFA0E0B0E0E816F9060A071B07B8F281E001C080E00F903D
:203280000F900F900F90CF91DF911F910F91FF90EF90DF90CF90BF90AF9008954F925F9258
:2032A0006F927F928F929F92AF92BF92CF92DF92EF92FF920F931F93DF93CF9300D000D06C
:2032C000CDB7DEB76C0149835A836B837C833901EE24FF2487012E010894411C511C812C99
:2032E000A2E09A2EA12CB12C49815A816B817C81C60192010E948218882351F1D501C4012E
:20330000F601058404C0880F991FAA1FBB1F0A94D2F7E80EF91E0A1F1B1F29813A814B816F
:203320005C818789803129F088EF9FEFAFEFBFE004C088EF9FEFA0E0B0E0281739074A07EB
:203340005B0790F2F301E082F1820283138381E00F900F900F900F90CF91DF911F910F91A8
:20336000FF90EF90DF90CF90BF90AF909F908F907F906F905F904F9008952F923F924F92A9
:203380005F926F927F928F929F92AF92BF92CF92DF92EF92FF920F931F93DF93CF93CDB7B6
:2033A000DEB72F970FB6F894DEBF0FBECDBF1C014A875B876C877D873F872E87D9010D91B1
:2033C0001D912D913C91011511052105310549F0480159010894811C911CA11CB11C198641
:2033E00010C0FC0180809180A280B38019868A859B85AC85BD850197A105B10511F491E0EF
:203400009987D10119968D919D910D90BC91A02D0196A11DB11D8D839E83AF83B8877501CD
:2034200064014424552432018E010F5F1F4FF10181859285A385B485481659066A067B068A
:2034400008F090C08D819E81AF81B8858C159D05AE05BF0550F482E0882E912CA12CB12C0D
:20346000B2E0CB2ED12CE12CF12CC101B701A60198010E948218882309F474C089819A81A3
:20348000AB81BC81A70196012F5F3F4F4F4F5F4F0097A105B10519F049015A010DC028196D
:2034A00039094A095B098A859B85AC85BD85281739074A075B0759F00894411C511C611C13
:2034C000711C0894C11CD11CE11CF11CB0CFC101A601B7010FEF1FEF2FEF3FE00E94E61767
:2034E000882399F43FC02601370108944108510861087108C101B301A201970186010E943C
:20350000E617882379F1730162018C149D04AE04BF0448F3AE85BF854D915D916D917C9183
:20352000411551056105710539F0C101950184010E94E6178823B1F0EE85FF858082918206
:20354000A282B382F985FF2359F00894811C911CA11CB11CD1018D929D92AD92BC92139762
:2035600081E001C080E02F960FB6F894DEBF0FBECDBFCF91DF911F910F91FF90EF90DF9020
:20358000CF90BF90AF909F908F907F906F905F904F903F902F9008950F931F93CF93DF93C1
:2035A000BC018230910510F462E070E0E091A206F091A30640E050E0A0E0B0E024C08081E8
:2035C000918186179707D0F08617970771F482819381109729F013969C938E9312972CC0D9
:2035E0009093A3068093A20627C04115510519F08417950718F48D01AC01EF01DF01828157
:2036000093819C01F9013097D1F641155105F9F0CA01861B970B8430910580F48A819B81E9
:203620000115110521F0F8019383828304C09093A3068093A206FE01329645C0FE01E80F2C
:20364000F91F619371930297998388833CC08091A0069091A106892B41F48091E201909121
:20366000E3019093A1068093A0064091E4015091E5014115510541F44DB75EB78091E0017A
:203680009091E101481B590B2091A0063091A10624173507B0F4CA01821B930B8617970745
:2036A00080F0AB014E5F5F4F8417950750F0420F531F5093A1064093A006F9016193719364
:2036C00002C0E0E0F0E0CF01DF91CF911F910F910895CF93DF939C01009709F48FC0EC01CA
:2036E00022971B821A826091A2067091A3066115710581F488819981820F931F2091A00677
:203700003091A1062817390739F5D093A106C093A00674C0DB0140E050E0AC17BD0708F1B1
:20372000BB83AA83FE0121913191E20FF31FAE17BF0779F48D919C911197280F391F2E5FA1
:203740003F4F3983288312968D919C9113979B838A834115510571F4D093A306C093A20694
:203760004DC012968D919C911397AD01009711F0DC01D3CFDA011396DC93CE931297FA01E2
:2037800021913191E20FF31FCE17DF0769F488819981280F391F2E5F3F4FFA01318320836B
:2037A0008A819B8193838283E0E0F0E0DB0112968D919C911397009719F0BC01FD01F6CF9E
:2037C000AB014E5F5F4FDB018D919C91840F951F2091A0063091A1062817390779F4309702
:2037E00029F41092A3061092A20602C013821282425050405093A1064093A006DF91CF9137
:2038000008951F920F920FB60F9211242F933F938F939F93AF93BF938091F1059091F20583
:20382000A091F305B091F4053091F5050196A11DB11D232F2D5F2D3720F02D570196A11D1C
:20384000B11D2093F5058093F1059093F205A093F305B093F4058091ED059091EE05A0911B
:20386000EF05B091F0050196A11DB11D8093ED059093EE05A093EF05B093F005BF91AF91F1
:203880009F918F913F912F910F900FBE0F901F9018958FB7F8942091F1053091F2054091DF
:2038A000F3055091F4058FBFB901CA0108959B01AC017FB7F8948091ED059091EE05A09173
:2038C000EF05B091F00566B5A89B05C06F3F19F00196A11DB11D7FBFBA2FA92F982F88274C
:2038E000860F911DA11DB11D62E0880F991FAA1FBB1F6A95D1F7BC012DC0FFB7F894809101
:20390000ED059091EE05A091EF05B091F005E6B5A89B05C0EF3F19F00196A11DB11DFFBF8B
:20392000BA2FA92F982F88278E0F911DA11DB11DE2E0880F991FAA1FBB1FEA95D1F7861BDD
:20394000970B885E9340C8F2215030404040504068517C4F211531054105510571F60895D1
:20396000789484B5826084BD84B5816084BD85B5826085BD85B5816085BDEEE6F0E0808124
:2039800081608083E1E8F0E01082808182608083808181608083E0E8F0E0808181608083D0
:2039A000E1EBF0E0808184608083E0EBF0E0808181608083EAE7F0E0808184608083808179
:2039C000826080838081816080838081806880831092C1000895CF93DF93482F50E0CA01EB
:2039E0008A5B9E4FFC0134914E5C5E4FFA018491882369F190E0880F991FFC01EC5EFE4F74
:203A0000A591B491FC01E25EFE4FC591D491662351F42FB7F8948C91932F909589238C93D7
:203A2000888189230BC0623061F42FB7F8948C91932F909589238C938881832B88832FBF2E
:203A400006C09FB7F8948C91832B8C939FBFDF91CF910895482F50E0CA01865A9E4FFC01CD
:203A60002491CA018A5B9E4FFC0194914E5C5E4FFA013491332309F440C0222351F123308E
:203A800071F0243028F42130A1F0223011F514C02630B1F02730C1F02430D9F404C0809152
:203AA00080008F7703C0809180008F7D8093800010C084B58F7702C084B58F7D84BD09C06D
:203AC0008091B0008F7703C08091B0008F7D8093B000E32FF0E0EE0FFF1FE25EFE4FA5910C
:203AE000B4912FB7F894662321F48C919095892302C08C91892B8C932FBF089508951F92F8
:203B00000F920FB60F9211242F933F934F938F939F93EF93FF938091C00082FD1DC040918D
:203B2000C60020913606309137062F5F3F4F2F73307080913806909139062817390771F0E7
:203B4000E0913606F0913706EA50FA4F4083309337062093360602C08091C600FF91EF911C
:203B60009F918F914F913F912F910F900FBE0F901F901895E0918A06F0918B06E05CFF4F81
:203B80008191919120813181821B930B8F739070892B11F00E947E1D08951F920F920FB6BB
:203BA0000F9211242F933F938F939F93EF93FF9320917A0630917B0680917C0690917D0689
:203BC0002817390731F48091C1008F7D8093C10014C0E0917C06F0917D06E65CF94F208199
:203BE00080917C0690917D0601968F73907090937D0680937C062093C600FF91EF919F9101
:203C00008F913F912F910F900FBE0F901F901895AF92BF92DF92EF92FF920F931F93CF93C2
:203C2000DF93EC017A018B01DD24403081EE580780E0680780E0780711F0DD24D39491E057
:203C4000A92EB12CEC89FD89DD2069F0C50108A002C0880F991F0A94E2F7808360E079E0CD
:203C60008DE390E005C0108260E874E88EE190E0A80197010E944E20215030404040504048
:203C8000569547953795279580E12030380720F0DD2011F0DD24D6CFE889F9893083EA8918
:203CA000FB89208319A2EE89FF89408121E030E0C9010C8C02C0880F991F0A94E2F7482BF4
:203CC0004083EE89FF894081C9010D8C02C0880F991F0A94E2F7482B4083EE89FF89408180
:203CE000C9010E8C02C0880F991F0A94E2F7482B4083EE89FF8980810F8C02C0220F331FC2
:203D00000A94E2F7209528232083DF91CF911F910F91FF90EF90DF90BF90AF900895DC01E4
:203D20001C96ED91FC911D97E05CFF4F2191319180819181281B390B2F733070C9010895D1
:203D4000DC011C96ED91FC911D97E05CFF4F20813181E054F040DF01AE5BBF4F8D919C9192
:203D600011972817390719F42FEF3FEF07C08D919C91E80FF91F8081282F30E0C9010895D3
:203D8000DC011C96ED91FC911D97E05CFF4F20813181E054F040DF01AE5BBF4F8D919C9152
:203DA00011972817390719F42FEF3FEF10C08D919C911197E80FF91F20818D919C9111971D
:203DC00001968F73907011969C938E9330E0C9010895DC0191968C919197882339F05496D5
:203DE000ED91FC915597808186FFF9CF91961C920895CF93DF93EC01EE85FF85E05CFF4FCA
:203E000020813181E054F0402F5F3F4F2F733070DF01AE5BBF4F8D919C9111972817390724
:203E2000D1F3E05CFF4F80819181E054F040E80FF91F6083EE85FF85E05CFF4F31832083F3
:203E4000EE89FF89208181E090E00F8C02C0880F991F0A94E2F7282B208381E089A3EC89D6
:203E6000FD8980818064808381E090E0DF91CF91089581E00895109281061092800688EED1
:203E800093E0A0E0B0E08093820690938306A0938406B093850682E192E090937F0680933D
:203EA0007E0686EF95E090938B0680938A068AE396E090938D0680938C0685EC90E09093FB
:203EC0008F0680938E0684EC90E0909391068093900680EC90E0909393068093920681ECB3
:203EE00090E0909395068093940682EC90E0909397068093960686EC90E0909399068093E3
:203F0000980684E080939A0683E080939B0687E080939C0685E080939D0681E080939E0686
:203F20000895CF93DF930E94B01C0E948D01CAEBDDE10E943A012097E1F30E94BA1DF9CF56
:203F4000CF92DF92EF92FF920F931F93CF93DF937C016B018A01C0E0D0E00FC0D6016D91ED
:203F60006D01D701ED91FC910190F081E02DC7010995C80FD91F015010400115110571F777
:203F8000CE01DF91CF911F910F91FF90EF90DF90CF900895EF92FF920F931F938C01DC01E9
:203FA000ED91FC910190F081E02D6DE009957C01D801ED91FC910190F081E02DC8016AE079
:203FC00009959C012E0D3F1DC9011F910F91FF90EF900895CF93DF93EC016115710519F490
:203FE00020E030E00FC0DB010D900020E9F71197A61BB70BE881F9810280F381E02DAD01AA
:2040000009959C01C901DF91CF9108950E94EA1F0895EF92FF920F931F937C010E94EA1F58
:204020008C01C7010E94CA1F080F191FC8011F910F91FF90EF900895629FD001739FF001B8
:20404000829FE00DF11D649FE00DF11D929FF00D839FF00D749FF00D659FF00D9927729F17
:20406000B00DE11DF91F639FB00DE11DF91FBD01CF011124089597FB092E07260AD077FDF4
:2040800004D02ED006D000201AF4709561957F4F0895F6F7909581959F4F0895A1E21A2E66
:2040A000AA1BBB1BFD010DC0AA1FBB1FEE1FFF1FA217B307E407F50720F0A21BB30BE40BF8
:2040C000F50B661F771F881F991F1A9469F760957095809590959B01AC01BD01CF010895B0
:2040E000AA1BBB1B51E107C0AA1FBB1FA617B70710F0A61BB70B881F991F5A95A9F7809588
:204100009095BC01CD010895EE0FFF1F0590F491E02D099411E0C4E7D1E004C0FE010E94C1
:2041200086202296C637D107C9F7F894FFCF496E697469616C697A696E67205344206361AC
:2041400072642E2E2E00696E697469616C697A6174696F6E206661696C65642100696E6931
:204160007469616C697A6174696F6E20646F6E652E00746573742E74787400746573742E67
:20418000747874206578697374732E0052656D6F76696E6720746573742E7478742E2E2E92
:2041A00000746573742E74787420646F65736E27742065786973742E0057726974696E677E
:2041C00020746F20746573742E7478742E2E2E0074657374696E6720312C20322C20332E6A
:2041E00000646F6E652E006572726F72206F70656E696E6720746573742E7478740074656A
:2042000073742E7478743A002F00FFFFFFFF8000A406000000000000D504A01FBB049A04A5
:20422000980587050000000051060E076906B406D206AC06000000005E14A01F0000000005
:20424000F91EA01F8F1EC01EA01EE91EFFFFFFFFFFFFFFFFFFFFFFFFFFFFFFFFFFFFFFFF4C
:20426000FFFFFFFFFFFFFFFFFFFFFFFFFFFFFFFFFFFFFFFFFFFFFFFFFFFFFFFFFFFFFFFF5E
:20428000282B208381E089A3EC89FD8980818064808381E090E0DF91CF9108951092400791
:2042A00010923F0788EE93E0A0E0B0E08093410790934207A0934307B09344078FEC93E05D
:2042C00090933E0780933D0785EB96E090934A078093490789EF96E090934C0780934B0799
:2042E00085EC90E090934E0780934D0784EC90E09093500780934F0780EC90E090935207E3
:204300008093510781EC90E0909354078093530782EC90E0909356078093550786EC90E0BB
:20432000909358078093570784E08093590783E080935A0787E080935B0785E080935C0725
:2043400081E080935D070895CF93DF930E94C51E0E945B01CFECDFE10E9441012097E1F3A7
:204360000E94CF1FF9CFCF92DF92EF92FF920F931F93CF93DF937C016B018A01C0E0D0E015
:204380000FC0D6016D916D01D701ED91FC910190F081E02DC7010995C80FD91F0150104043
:2043A0000115110571F7CE01DF91CF911F910F91FF90EF90DF90CF900895DC01ED91FC9119
:2043C0000190F081E02D09950895EF92FF920F931F938C01DC01ED91FC910190F081E02DA9
:2043E0006DE009957C01D801ED91FC910190F081E02DC8016AE009959C012E0D3F1DC901B3
:204400001F910F91FF90EF900895CF93DF93EC016115710519F420E030E00FC0DB010D908F
:204420000020E9F71197A61BB70BE881F9810280F381E02DAD0109959C01C901DF91CF91E8
:2044400008950E9405220895EF92FF920F931F937C010E9405228C01C7010E94E521080F99
:20446000191FC8011F910F91FF90EF900895629FD001739FF001829FE00DF11D649FE00D5F
:20448000F11D929FF00D839FF00D749FF00D659FF00D9927729FB00DE11DF91F639FB00D4D
:2044A000E11DF91FBD01CF011124089597FB092E07260AD077FD04D02ED006D000201AF46C
:2044C000709561957F4F0895F6F7909581959F4F0895A1E21A2EAA1BBB1BFD010DC0AA1FC9
:2044E000BB1FEE1FFF1FA217B307E407F50720F0A21BB30BE40BF50B661F771F881F991F69
:204500001A9469F760957095809590959B01AC01BD01CF010895AA1BBB1B51E107C0AA1F88
:20452000BB1FA617B70710F0A61BB70B881F991F5A95A9F780959095BC01CD010895EE0F56
:20454000FF1F0590F491E02D099411E0C4E7D1E004C0FE010E94A1222296C637D107C9F7B7
:20456000F894FFCF496E697469616C697A696E6720534420636172642E2E2E00696E697447
:2045800069616C697A6174696F6E206661696C65642100696E697469616C697A6174696FC7
:2045A0006E20646F6E652E00746573742E74787400746573742E747874206578697374733D
:2045C0002E00746573742E74787420646F65736E27742065786973742E0057726974696E93
:2045E0006720746F20746573742E7478742E2E2E0074657374696E6720312C20322C20330D
:204600002E00646F6E652E006572726F72206F70656E696E6720746573742E74787400747C
:204620006573742E7478743A00456C6563726F7700656C6563726F77323031320031393243
:204640002E3136382E312E313130003830383000436F6E6E656374656421004173736F63F1
:20466000696174656421004448435020696E004C697374656E206F6E2032303030005573E6
:20468000696E67205374617469632049500000636C6F73650D00657869740D004558495477
:2046A0000024242400434D44006F70656E200020000D002A4F50454E2A006A6F696E200065
:2046C0007265626F6F740D002A5265626F6F742A002A52454144592A00666163746F7279C2
:2046E0002052455345540D00414F4B007365742077206A6F696E20310D0073657420636FE0
:204700006D6D2072656D6F746520300D007365742077206C696E6B6D6F6E20350D00736581
:204720007420636F6D6D2069646C6520300D0073657420776C616E206175746820340D00CD
:2047400073657420646E732061646472657373203139322E3136382E312E320D0073657401
:204760002077207373696420007365742077207068726173652000736574206970206468D8
:20478000637020300D007365742069702061646472657373200073657420697020676174DD
:2047A000657761792000736574206970206E65746D61736B2000736176650D0053746F7247
:2047C000696E6720696E20636F6E666967007365742077206A6F696E20300D007365742092
:2047E0006970206468637020310D002F00FFFFFFFF800063070000000000007E1BB32164DD
:204800001B431B411CA80200000000E504A205FD0448056605400500000000F212B32100B2
:204820000000007E1BB321641B431B411C301C000000000E21B321A420D520B520FE2000D6
:20484000FFFFFFFFFFFFFFFFFFFFFFFFFFFFFFFFFFFFFFFFFFFFFFFFFFFFFFFFFFFFFFFF78
:20486000FFFFFFFFFFFFFFFFFFFFFFFFFFFFFFFFFFFFFFFFFFFFFFFFFFFFFFFFFFFFFFFF58
:20488000FFFFFFFFFFFFFFFFFFFFFFFFFFFFFFFFFFFFFFFFFFFFFFFFFFFFFFFFFFFFFFFF38
:2048A000FFFFFFFFFFFFFFFFFFFFFFFFFFFFFFFFFFFFFFFFFFFFFFFFFFFFFFFFFFFFFFFF18
:207800000C94343C0C94513C0C94513C0C94513C0C94513C0C94513C0C94513C0C94513C1D
:207820000C94513C0C94513C0C94513C0C94513C0C94513C0C94513C0C94513C0C94513CE0
:207840000C94513C0C94513C0C94513C0C94513C0C94513C0C94513C0C94513C0C94513CC0
:207860000C94513C0C94513C11241FBECFEFD8E0DEBFCDBF11E0A0E0B1E0ECE9FFE702C07E
:2078800005900D92A230B107D9F712E0A2E0B1E001C01D92AD30B107E1F70E942D3D0C94CC
:2078A000CC3F0C94003C982F9595959595959595905D8F708A307CF0282F295A8091C000B5
:2078C00085FFFCCF9093C6008091C00085FFFCCF2093C6000895282F205DF0CF982F8091CF
:2078E000C00085FFFCCF9093C6000895EF92FF920F931F93EE24FF2487018091C00087FD7B
:2079000017C00894E11CF11C011D111D81E4E81682E4F8068FE0080780E0180770F3E09106
:207920000401F091050109958091C00087FFE9CF8091C6001F910F91FF90EF9008950E949A
:20794000763C982F8091C00085FFFCCF9093C60091362CF490330CF09053892F08959755DB
:20796000892F08951F930E949F3C182F0E949F3C1295107F810F1F9108951F93182F882308
:2079800021F00E94763C1150E1F71F9108951F93182F0E94763C803249F0809103018F5FC1
:2079A000809303018530C1F01F9108958091C00085FFFCCF84E18093C6008091C00085FF4A
:2079C000FCCF1093C6008091C00085FFFCCF80E18093C6001F910895E0910401F0910501CF
:2079E00009951F9108950E94763C803241F0809103018F5F80930301853081F00895809177
:207A0000C00085FFFCCF84E18093C6008091C00085FFFCCF80E18093C6000895E0910401AC
:207A2000F09105010995089540E951E08823A1F02D9A28EE33E0FA013197F1F72150304072
:207A4000D1F72D9828EE33E0FA013197F1F721503040D1F7815061F708953F924F925F92B3
:207A60006F927F928F929F92AF92BF92CF92DF92EF92FF920F931F93CF93DF93000080E1A3
:207A80008093C4001092C50088E18093C10086E08093C2005098589A259A81E00E94143D43
:207AA00024E1F22E9EE1E92E85E9D82E0FE0C02E10E1B12EAA24A394B1E49B2EA6E58A2E44
:207AC000F2E57F2EE0E26E2E79E4572E63E5462E50E5352E0E94763C8033B1F18133B9F187
:207AE000803409F46FC0813409F476C0823409F485C0853409F488C0803531F1823521F128
:207B0000813511F1853509F485C0863509F48DC0843609F496C0843709F403C1853709F46A
:207B200072C1863709F466C0809103018F5F80930301853079F6E0910401F0910501099559
:207B40000E94763C803351F60E94F33CC3CF0E94763C803249F78091C00085FFFCCFF0928C
:207B6000C6008091C00085FFFCCF9092C6008091C00085FFFCCF8092C6008091C00085FFEA
:207B8000FCCF7092C6008091C00085FFFCCF6092C6008091C00085FFFCCF5092C6008091A1
:207BA000C00085FFFCCF4092C6008091C00085FFFCCF3092C6008091C00085FFFCCFB09214
:207BC000C60088CF0E94763C863808F4BDCF0E94763C0E94F33C7ECF0E94763C803809F473
:207BE0009CC0813809F40BC1823809F43CC1883909F48FC080E00E94C73C6CCF84E10E949F
:207C0000BD3C0E94F33C66CF85E00E94BD3C0E94F33C60CF0E94763C809306010E94763CA3
:207C2000809307010E94F33C55CF0E94763C803309F41DC183E00E94BD3C80E00E94C73C4F
:207C400049CF0E94763C809309020E94763C8093080280910C028E7F80930C020E94763C88
:207C6000853409F415C18091080290910902892B89F000E010E00E94763CF801E85FFE4F53
:207C800080830F5F1F4F80910802909109020817190788F30E94763C803209F045CF8091E0
:207CA0000C0280FF01C16091060170910701660F771F7093070160930601A0910802B091E8
:207CC00009021097C9F0E8E0F1E09B01AD014E0F5F1FF999FECF32BD21BD819180BDFA9A6C
:207CE000F99A2F5F3F4FE417F50799F76A0F7B1F70930701609306018091C00085FFFCCF16
:207D0000F092C6008091C00085FFFCCFB092C600E1CE83E00E94C73CDDCE82E00E94C73C8A
:207D2000D9CE0E94763C809309020E94763C809308028091060190910701880F991F909306
:207D40000701809306010E94763C853409F4A6C080910C028E7F80930C020E94763C80323E
:207D600009F0B8CE8091C00085FFFCCFF092C600609108027091090261157105B9F140E05F
:207D800050E080910C02A82FA170B82FB27011C0BB2309F45CC0E0910601F0910701319613
:207DA000F0930701E09306014F5F5F4F46175707E8F4AA2369F3F999FECF209106013091CA
:207DC000070132BD21BDF89A90B58091C00085FFFCCF9093C6002F5F3F4F30930701209354
:207DE00006014F5F5F4F4617570718F38091C00085FDE5CE8091C00085FFF8CFE0CE81E029
:207E00000E94C73C67CE0E94763C803209F08CCE8091C00085FFFCCFF092C6008091C000F6
:207E200085FFFCCFE092C6008091C00085FFFCCFD092C6008091C00085FFFCCFC092C6003B
:207E40008091C00085FFFCCFB092C60043CEE0910601F091070194918091C00085FFFCCFA3
:207E60009093C6009CCF80E10E94C73C33CE0E94763C0E94763C182F0E94763C112309F433
:207E800083C0113009F484C08FE00E94C73C22CE80910C02816080930C02E5CE80910C0226
:207EA000816080930C0259CF809107018823880F880B8A2180930B0280910601909107019E
:207EC000880F991F90930701809306018091080280FF09C0809108029091090201969093AA
:207EE000090280930802F894F999FECF1127E0910601F0910701C8E0D1E0809108029091A1
:207F00000902103091F40091570001700130D9F303E000935700E895009157000170013067
:207F2000D9F301E100935700E895099019900091570001700130D9F301E000935700E8954C
:207F40001395103498F011270091570001700130D9F305E000935700E8950091570001707A
:207F60000130D9F301E100935700E8953296029709F0C7CF103011F00296E5CF11248091F8
:1E7F8000C00085FFB9CEBCCE8EE10E94C73CA2CD85E90E94C73C9ECDF894FFCF8000B3
:00000001FF
